{
  "_format": "hh-sol-artifact-1",
  "contractName": "SafePassWallet",
  "sourceName": "contracts/SafePassWallet.sol",
  "abi": [
    {
      "inputs": [
        {
          "internalType": "address",
          "name": "_owner",
          "type": "address"
        }
      ],
      "stateMutability": "nonpayable",
      "type": "constructor"
    },
    {
      "inputs": [
        {
          "internalType": "address",
          "name": "guardian",
          "type": "address"
        }
      ],
      "name": "addGuardian",
      "outputs": [],
      "stateMutability": "nonpayable",
      "type": "function"
    },
    {
      "inputs": [
        {
          "internalType": "address",
          "name": "to",
          "type": "address"
        },
        {
          "internalType": "uint256",
          "name": "amount",
          "type": "uint256"
        }
      ],
      "name": "execute",
      "outputs": [],
      "stateMutability": "nonpayable",
      "type": "function"
    },
    {
      "inputs": [
        {
          "internalType": "address",
          "name": "",
          "type": "address"
        }
      ],
      "name": "guardians",
      "outputs": [
        {
          "internalType": "bool",
          "name": "",
          "type": "bool"
        }
      ],
      "stateMutability": "view",
      "type": "function"
    },
    {
      "inputs": [],
      "name": "owner",
      "outputs": [
        {
          "internalType": "address",
          "name": "",
          "type": "address"
        }
      ],
      "stateMutability": "view",
      "type": "function"
    },
    {
      "stateMutability": "payable",
      "type": "receive"
    }
  ],
  "bytecode": "0x608060405234801561001057600080fd5b50604051610759380380610759833981810160405281019061003291906100db565b806000806101000a81548173ffffffffffffffffffffffffffffffffffffffff021916908373ffffffffffffffffffffffffffffffffffffffff16021790555050610108565b600080fd5b600073ffffffffffffffffffffffffffffffffffffffff82169050919050565b60006100a88261007d565b9050919050565b6100b88161009d565b81146100c357600080fd5b50565b6000815190506100d5816100af565b92915050565b6000602082840312156100f1576100f0610078565b5b60006100ff848285016100c6565b91505092915050565b610642806101176000396000f3fe6080604052600436106100435760003560e01c80630633b14a1461004f5780633b89bb861461008c5780638da5cb5b146100b5578063a526d83b146100e05761004a565b3661004a57005b600080fd5b34801561005b57600080fd5b50610076600480360381019061007191906103b4565b610109565b60405161008391906103fc565b60405180910390f35b34801561009857600080fd5b506100b360048036038101906100ae919061044d565b610129565b005b3480156100c157600080fd5b506100ca610245565b6040516100d7919061049c565b60405180910390f35b3480156100ec57600080fd5b50610107600480360381019061010291906103b4565b610269565b005b60016020528060005260406000206000915054906101000a900460ff1681565b60008054906101000a900473ffffffffffffffffffffffffffffffffffffffff1673ffffffffffffffffffffffffffffffffffffffff163373ffffffffffffffffffffffffffffffffffffffff16146101b7576040517f08c379a00000000000000000000000000000000000000000000000000000000081526004016101ae90610514565b60405180910390fd5b804710156101fa576040517f08c379a00000000000000000000000000000000000000000000000000000000081526004016101f190610580565b60405180910390fd5b8173ffffffffffffffffffffffffffffffffffffffff166108fc829081150290604051600060405180830381858888f19350505050158015610240573d6000803e3d6000fd5b505050565b60008054906101000a900473ffffffffffffffffffffffffffffffffffffffff1681565b60008054906101000a900473ffffffffffffffffffffffffffffffffffffffff1673ffffffffffffffffffffffffffffffffffffffff163373ffffffffffffffffffffffffffffffffffffffff16146102f7576040517f08c379a00000000000000000000000000000000000000000000000000000000081526004016102ee906105ec565b60405180910390fd5b60018060008373ffffffffffffffffffffffffffffffffffffffff1673ffffffffffffffffffffffffffffffffffffffff16815260200190815260200160002060006101000a81548160ff02191690831515021790555050565b600080fd5b600073ffffffffffffffffffffffffffffffffffffffff82169050919050565b600061038182610356565b9050919050565b61039181610376565b811461039c57600080fd5b50565b6000813590506103ae81610388565b92915050565b6000602082840312156103ca576103c9610351565b5b60006103d88482850161039f565b91505092915050565b60008115159050919050565b6103f6816103e1565b82525050565b600060208201905061041160008301846103ed565b92915050565b6000819050919050565b61042a81610417565b811461043557600080fd5b50565b60008135905061044781610421565b92915050565b6000806040838503121561046457610463610351565b5b60006104728582860161039f565b925050602061048385828601610438565b9150509250929050565b61049681610376565b82525050565b60006020820190506104b1600083018461048d565b92915050565b600082825260208201905092915050565b7f4e6f7420617574686f72697a6564000000000000000000000000000000000000600082015250565b60006104fe600e836104b7565b9150610509826104c8565b602082019050919050565b6000602082019050818103600083015261052d816104f1565b9050919050565b7f496e73756666696369656e7420636f6e74726163742062616c616e6365000000600082015250565b600061056a601d836104b7565b915061057582610534565b602082019050919050565b600060208201905081810360008301526105998161055d565b9050919050565b7f4f6e6c79206f776e657200000000000000000000000000000000000000000000600082015250565b60006105d6600a836104b7565b91506105e1826105a0565b602082019050919050565b60006020820190508181036000830152610605816105c9565b905091905056fea26469706673582212206569950d2f076e407b07a5e05bc96575debc4d76611071196e18f35d701d924f64736f6c634300081c0033",
  "linkReferences": {},
  "deployedLinkReferences": {}
}